:100000000AC019C018C017C016C015C014C013C04C
:1000100012C011C010C011271FBFCFE5D0E0DEBF56
:10002000CDBF20E0A0E4B0E001C01D93A334B2072F
:10003000E1F76CD07DC0E4CFCF93DF931F93CDB7B2
:10004000DEB7CF5FDF4F6883C150D040CF5FDF4F57
:100050006881C150D04070E0E62FF72F02C0F595BF
:10006000E7954A95E2F7E0FD2AC090E0E82FF92FE6
:10007000EF5BFF4F40814F5F4083E82FF92FE05C3B
:10008000FF4F1083CA5FDF4F5881C650D0405417CE
:10009000B0F5E82FF92FEE5BFF4F4081411308C008
:1000A000E82FF92FEE5BFF4F41E0408381E02AC04B
:1000B000E82FF92FEF5BFF4F108380E023C090E023
:1000C000E82FF92FE05CFF4F40814F5F4083E82F1E
:1000D000F92FEF5BFF4F1083C95FDF4F5881C75087
:1000E000D040541770F4E82FF92FEE5BFF4F1083C8
:1000F000E82FF92FE05CFF4F108380E003C080E021
:1001000001C080E00F91DF91CF9108950A9A119A72
:1001100060B14AE04F934F9341E081E08DDF0F9152
:100120000F918130A9F752B144E0452742B9F0CF91
:04013000F894FFCF71
:00000001FF
