S018000053746174655F436F6E74726F6C6C65722E7372656388
S11300000AC019C018C017C016C015C014C013C048
S113001012C011C010C011271FBFCFE5D0E0DEBF52
S1130020CDBF20E0A0E4B0E001C01D93A534B20729
S1130030E1F76FD0B5C0E4CFCF93DF931F93CDB773
S1130040DEB7CF5FDF4F6883C150D040CF5FDF4F53
S11300506881C150D04070E0E62FF72F02C0F595BB
S1130060E7954A95E2F7E0FD2AC090E0E82FF92FE2
S1130070ED5BFF4F40814F5F4083E82FF92FEE5B2C
S1130080FF4F1083CA5FDF4F5881C650D0405417CA
S1130090B0F5E82FF92FEC5BFF4F4081411308C006
S11300A0E82FF92FEC5BFF4F41E0408381E02AC049
S11300B0E82FF92FED5BFF4F108380E023C090E021
S11300C0E82FF92FEE5BFF4F40814F5F4083E82F0D
S11300D0F92FED5BFF4F1083C95FDF4F5881C75085
S11300E0D040541770F4E82FF92FEC5BFF4F1083C6
S11300F0E82FF92FEE5BFF4F108380E003C080E010
S113010001C080E00F91DF91CF910895129810986B
S1130110089541B1456041B960B14CE24F934F93AA
S113012041E081E089DF0F910F918130A9F4E0E48F
S1130130F0E04081EF5FFF4F5081E150F0404F5FAE
S11301405F4F443051071CF44193508305C0E0E4F1
S1130150F0E01193108316C0E0E4F0E04081EF5F1B
S1130160FF4F5081E150F0404130510771F01CF4D1
S1130170452BA1F407C04230510751F043305107D9
S113018059F00CC0C3DF129AC7CFC0DF109AC4CF96
S1130190BDDF129A109AC0CFB9DFBECFB7DFBCCF94
S10701A0F894FFCFFD
S9030000FC
